:020000020000FC
:100000000C940B000C9421000E942700439A48E0B6
:100010004EBF4FEF4DBF239824982598339B09C0BE
:1000200042E040936900249A5A9A41E04DBB78948B
:10003000F2CF229A0E94350022982A98339BF9CF5A
:10004000EACF219A0E94410021982998189544E00E
:1000500054E66CE700000000000000006A95E1F73C
:100060005A95B9F74A95A1F708954DE75DE76FEF07
:10007000000000006A95E1F75A95C9F74A95B1F773
:10008000089544E058EC6CE7000000006A95E1F741
:0A0090005A95C9F74A95B1F7089593
:00000001FF
